{
  "contractName": "ERC20RewardApeV1",
  "abi": [
    {
      "anonymous": false,
      "inputs": [
        {
          "indexed": true,
          "internalType": "address",
          "name": "sender",
          "type": "address"
        },
        {
          "indexed": true,
          "internalType": "address",
          "name": "user",
          "type": "address"
        },
        {
          "indexed": false,
          "internalType": "uint256",
          "name": "amount",
          "type": "uint256"
        }
      ],
      "name": "Deposit",
      "type": "event"
    },
    {
      "anonymous": false,
      "inputs": [
        {
          "indexed": false,
          "internalType": "uint256",
          "name": "amount",
          "type": "uint256"
        }
      ],
      "name": "DepositRewards",
      "type": "event"
    },
    {
      "anonymous": false,
      "inputs": [
        {
          "indexed": true,
          "internalType": "address",
          "name": "user",
          "type": "address"
        },
        {
          "indexed": false,
          "internalType": "uint256",
          "name": "amount",
          "type": "uint256"
        }
      ],
      "name": "EmergencyRewardWithdraw",
      "type": "event"
    },
    {
      "anonymous": false,
      "inputs": [
        {
          "indexed": true,
          "internalType": "address",
          "name": "user",
          "type": "address"
        },
        {
          "indexed": true,
          "internalType": "contract IERC20",
          "name": "token",
          "type": "address"
        },
        {
          "indexed": false,
          "internalType": "uint256",
          "name": "amount",
          "type": "uint256"
        }
      ],
      "name": "EmergencySweepWithdraw",
      "type": "event"
    },
    {
      "anonymous": false,
      "inputs": [
        {
          "indexed": true,
          "internalType": "address",
          "name": "user",
          "type": "address"
        },
        {
          "indexed": false,
          "internalType": "uint256",
          "name": "amount",
          "type": "uint256"
        }
      ],
      "name": "EmergencyWithdraw",
      "type": "event"
    },
    {
      "anonymous": false,
      "inputs": [
        {
          "indexed": false,
          "internalType": "uint256",
          "name": "bonusEndTime",
          "type": "uint256"
        },
        {
          "indexed": false,
          "internalType": "uint256",
          "name": "rewardPerSecond",
          "type": "uint256"
        }
      ],
      "name": "LogUpdatePool",
      "type": "event"
    },
    {
      "anonymous": false,
      "inputs": [
        {
          "indexed": true,
          "internalType": "address",
          "name": "previousOwner",
          "type": "address"
        },
        {
          "indexed": true,
          "internalType": "address",
          "name": "newOwner",
          "type": "address"
        }
      ],
      "name": "OwnershipTransferred",
      "type": "event"
    },
    {
      "anonymous": false,
      "inputs": [
        {
          "indexed": true,
          "internalType": "address",
          "name": "user",
          "type": "address"
        },
        {
          "indexed": false,
          "internalType": "uint256",
          "name": "amount",
          "type": "uint256"
        }
      ],
      "name": "SkimStakeTokenFees",
      "type": "event"
    },
    {
      "anonymous": false,
      "inputs": [
        {
          "indexed": true,
          "internalType": "address",
          "name": "user",
          "type": "address"
        },
        {
          "indexed": false,
          "internalType": "uint256",
          "name": "amount",
          "type": "uint256"
        }
      ],
      "name": "Withdraw",
      "type": "event"
    },
    {
      "inputs": [],
      "name": "REWARD_TOKEN",
      "outputs": [
        {
          "internalType": "contract IERC20",
          "name": "",
          "type": "address"
        }
      ],
      "stateMutability": "view",
      "type": "function"
    },
    {
      "inputs": [],
      "name": "STAKE_TOKEN",
      "outputs": [
        {
          "internalType": "contract IERC20",
          "name": "",
          "type": "address"
        }
      ],
      "stateMutability": "view",
      "type": "function"
    },
    {
      "inputs": [],
      "name": "bonusEndTime",
      "outputs": [
        {
          "internalType": "uint256",
          "name": "",
          "type": "uint256"
        }
      ],
      "stateMutability": "view",
      "type": "function"
    },
    {
      "inputs": [],
      "name": "isNativeTokenReward",
      "outputs": [
        {
          "internalType": "bool",
          "name": "",
          "type": "bool"
        }
      ],
      "stateMutability": "view",
      "type": "function"
    },
    {
      "inputs": [],
      "name": "owner",
      "outputs": [
        {
          "internalType": "address",
          "name": "",
          "type": "address"
        }
      ],
      "stateMutability": "view",
      "type": "function"
    },
    {
      "inputs": [],
      "name": "poolInfo",
      "outputs": [
        {
          "internalType": "contract IERC20",
          "name": "lpToken",
          "type": "address"
        },
        {
          "internalType": "uint256",
          "name": "allocPoint",
          "type": "uint256"
        },
        {
          "internalType": "uint256",
          "name": "lastRewardTime",
          "type": "uint256"
        },
        {
          "internalType": "uint256",
          "name": "accRewardTokenPerShare",
          "type": "uint256"
        }
      ],
      "stateMutability": "view",
      "type": "function"
    },
    {
      "inputs": [],
      "name": "renounceOwnership",
      "outputs": [],
      "stateMutability": "nonpayable",
      "type": "function"
    },
    {
      "inputs": [],
      "name": "rewardPerSecond",
      "outputs": [
        {
          "internalType": "uint256",
          "name": "",
          "type": "uint256"
        }
      ],
      "stateMutability": "view",
      "type": "function"
    },
    {
      "inputs": [],
      "name": "startTime",
      "outputs": [
        {
          "internalType": "uint256",
          "name": "",
          "type": "uint256"
        }
      ],
      "stateMutability": "view",
      "type": "function"
    },
    {
      "inputs": [],
      "name": "totalRewardsAllocated",
      "outputs": [
        {
          "internalType": "uint256",
          "name": "",
          "type": "uint256"
        }
      ],
      "stateMutability": "view",
      "type": "function"
    },
    {
      "inputs": [],
      "name": "totalRewardsPaid",
      "outputs": [
        {
          "internalType": "uint256",
          "name": "",
          "type": "uint256"
        }
      ],
      "stateMutability": "view",
      "type": "function"
    },
    {
      "inputs": [],
      "name": "totalStaked",
      "outputs": [
        {
          "internalType": "uint256",
          "name": "",
          "type": "uint256"
        }
      ],
      "stateMutability": "view",
      "type": "function"
    },
    {
      "inputs": [
        {
          "internalType": "address",
          "name": "newOwner",
          "type": "address"
        }
      ],
      "name": "transferOwnership",
      "outputs": [],
      "stateMutability": "nonpayable",
      "type": "function"
    },
    {
      "inputs": [
        {
          "internalType": "address",
          "name": "",
          "type": "address"
        }
      ],
      "name": "userInfo",
      "outputs": [
        {
          "internalType": "uint256",
          "name": "amount",
          "type": "uint256"
        },
        {
          "internalType": "uint256",
          "name": "rewardDebt",
          "type": "uint256"
        }
      ],
      "stateMutability": "view",
      "type": "function"
    },
    {
      "stateMutability": "payable",
      "type": "receive"
    },
    {
      "inputs": [
        {
          "internalType": "contract IERC20",
          "name": "_stakeToken",
          "type": "address"
        },
        {
          "internalType": "contract IERC20",
          "name": "_rewardToken",
          "type": "address"
        },
        {
          "internalType": "uint256",
          "name": "_rewardPerSecond",
          "type": "uint256"
        },
        {
          "internalType": "uint256",
          "name": "_startTime",
          "type": "uint256"
        },
        {
          "internalType": "uint256",
          "name": "_bonusEndTime",
          "type": "uint256"
        }
      ],
      "name": "initialize",
      "outputs": [],
      "stateMutability": "nonpayable",
      "type": "function"
    },
    {
      "inputs": [
        {
          "internalType": "uint256",
          "name": "_from",
          "type": "uint256"
        },
        {
          "internalType": "uint256",
          "name": "_to",
          "type": "uint256"
        }
      ],
      "name": "getMultiplier",
      "outputs": [
        {
          "internalType": "uint256",
          "name": "",
          "type": "uint256"
        }
      ],
      "stateMutability": "view",
      "type": "function"
    },
    {
      "inputs": [
        {
          "internalType": "uint256",
          "name": "_bonusEndTime",
          "type": "uint256"
        }
      ],
      "name": "setBonusEndTime",
      "outputs": [],
      "stateMutability": "nonpayable",
      "type": "function"
    },
    {
      "inputs": [
        {
          "internalType": "address",
          "name": "_user",
          "type": "address"
        }
      ],
      "name": "pendingReward",
      "outputs": [
        {
          "internalType": "uint256",
          "name": "pending",
          "type": "uint256"
        }
      ],
      "stateMutability": "view",
      "type": "function"
    },
    {
      "inputs": [],
      "name": "updatePool",
      "outputs": [],
      "stateMutability": "nonpayable",
      "type": "function"
    },
    {
      "inputs": [
        {
          "internalType": "uint256",
          "name": "_amount",
          "type": "uint256"
        }
      ],
      "name": "deposit",
      "outputs": [],
      "stateMutability": "nonpayable",
      "type": "function"
    },
    {
      "inputs": [
        {
          "internalType": "uint256",
          "name": "_amount",
          "type": "uint256"
        },
        {
          "internalType": "address",
          "name": "_user",
          "type": "address"
        }
      ],
      "name": "depositTo",
      "outputs": [],
      "stateMutability": "nonpayable",
      "type": "function"
    },
    {
      "inputs": [
        {
          "internalType": "uint256",
          "name": "_amount",
          "type": "uint256"
        }
      ],
      "name": "withdraw",
      "outputs": [],
      "stateMutability": "nonpayable",
      "type": "function"
    },
    {
      "inputs": [],
      "name": "rewardBalance",
      "outputs": [
        {
          "internalType": "uint256",
          "name": "",
          "type": "uint256"
        }
      ],
      "stateMutability": "view",
      "type": "function"
    },
    {
      "inputs": [],
      "name": "getUnharvestedRewards",
      "outputs": [
        {
          "internalType": "uint256",
          "name": "",
          "type": "uint256"
        }
      ],
      "stateMutability": "view",
      "type": "function"
    },
    {
      "inputs": [
        {
          "internalType": "uint256",
          "name": "_amount",
          "type": "uint256"
        }
      ],
      "name": "depositRewards",
      "outputs": [],
      "stateMutability": "nonpayable",
      "type": "function"
    },
    {
      "inputs": [],
      "name": "totalStakeTokenBalance",
      "outputs": [
        {
          "internalType": "uint256",
          "name": "",
          "type": "uint256"
        }
      ],
      "stateMutability": "view",
      "type": "function"
    },
    {
      "inputs": [],
      "name": "getStakeTokenFeeBalance",
      "outputs": [
        {
          "internalType": "uint256",
          "name": "",
          "type": "uint256"
        }
      ],
      "stateMutability": "view",
      "type": "function"
    },
    {
      "inputs": [
        {
          "internalType": "uint256",
          "name": "_rewardPerSecond",
          "type": "uint256"
        }
      ],
      "name": "setRewardPerSecond",
      "outputs": [],
      "stateMutability": "nonpayable",
      "type": "function"
    },
    {
      "inputs": [
        {
          "internalType": "address",
          "name": "_to",
          "type": "address"
        }
      ],
      "name": "skimStakeTokenFees",
      "outputs": [],
      "stateMutability": "nonpayable",
      "type": "function"
    },
    {
      "inputs": [],
      "name": "emergencyWithdraw",
      "outputs": [],
      "stateMutability": "nonpayable",
      "type": "function"
    },
    {
      "inputs": [
        {
          "internalType": "uint256",
          "name": "_amount",
          "type": "uint256"
        }
      ],
      "name": "emergencyRewardWithdraw",
      "outputs": [],
      "stateMutability": "nonpayable",
      "type": "function"
    },
    {
      "inputs": [
        {
          "internalType": "contract IERC20",
          "name": "token",
          "type": "address"
        }
      ],
      "name": "sweepToken",
      "outputs": [],
      "stateMutability": "nonpayable",
      "type": "function"
    }
  ],
  "bytecode": "0x60806040526000600555600060065560006007556000600d5534801561002457600080fd5b50600160005561003333610038565b61008a565b600180546001600160a01b038381166001600160a01b0319831681179093556040519116919082907f8be0079c531659141344cd1fd0a4f28419497f9722a3daafe3b4186f6b6457e090600090a35050565b611e78806100996000396000f3fe6080604052600436106101e75760003560e01c80638bdf67f211610102578063bbac08f411610095578063e3161ddd11610064578063e3161ddd146105f6578063ee1a62951461060b578063f2fde38b14610621578063f40f0f521461064157600080fd5b8063bbac08f414610581578063d13f90b4146105a1578063db2e21bc146105c1578063db64d8c0146105d657600080fd5b806399248ea7116100d157806399248ea714610517578063a49ceb1914610537578063aa5c3ab41461054c578063b6b55f251461056157600080fd5b80638bdf67f2146104a35780638da5cb5b146104c35780638dbb1e3a146104e15780638f10369a1461050157600080fd5b80635a2f3d091161017a57806374958e351161014957806374958e351461044c57806378e9792514610462578063812bc70814610478578063817b1cd21461048d57600080fd5b80635a2f3d09146103a157806366da5815146103f757806370aff70f14610417578063715018a61461043757600080fd5b80631c39b672116101b65780631c39b672146103135780632e1a7d4d1461034b5780633279beab1461036b57806341744f7b1461038b57600080fd5b8063074bad1d1461025157806309e4e7ab146102875780631959a002146102aa5780631be19560146102f357600080fd5b3661024c57600354600160a01b900460ff1661024a5760405162461bcd60e51b815260206004820152601a60248201527f52657761726420746f6b656e206973206e6f74206e617469766500000000000060448201526064015b60405180910390fd5b005b600080fd5b34801561025d57600080fd5b5060035461027290600160a01b900460ff1681565b60405190151581526020015b60405180910390f35b34801561029357600080fd5b5061029c610661565b60405190815260200161027e565b3480156102b657600080fd5b506102de6102c5366004611bb6565b600c602052600090815260409020805460019091015482565b6040805192835260208301919091520161027e565b3480156102ff57600080fd5b5061024a61030e366004611bb6565b610678565b34801561031f57600080fd5b50600254610333906001600160a01b031681565b6040516001600160a01b03909116815260200161027e565b34801561035757600080fd5b5061024a610366366004611c42565b610832565b34801561037757600080fd5b5061024a610386366004611c42565b610a03565b34801561039757600080fd5b5061029c60075481565b3480156103ad57600080fd5b50600854600954600a54600b546103cd936001600160a01b031692919084565b604080516001600160a01b039095168552602085019390935291830152606082015260800161027e565b34801561040357600080fd5b5061024a610412366004611c42565b610abd565b34801561042357600080fd5b5061024a610432366004611c72565b610b2c565b34801561044357600080fd5b5061024a610bbd565b34801561045857600080fd5b5061029c60065481565b34801561046e57600080fd5b5061029c600e5481565b34801561048457600080fd5b5061029c610bf3565b34801561049957600080fd5b5061029c60055481565b3480156104af57600080fd5b5061024a6104be366004611c42565b610c0a565b3480156104cf57600080fd5b506001546001600160a01b0316610333565b3480156104ed57600080fd5b5061029c6104fc366004611ca1565b610d03565b34801561050d57600080fd5b5061029c60045481565b34801561052357600080fd5b50600354610333906001600160a01b031681565b34801561054357600080fd5b5061029c610d44565b34801561055857600080fd5b5061029c610de2565b34801561056d57600080fd5b5061024a61057c366004611c42565b610eac565b34801561058d57600080fd5b5061024a61059c366004611bb6565b610ee6565b3480156105ad57600080fd5b5061024a6105bc366004611bf2565b610f7b565b3480156105cd57600080fd5b5061024a6110ee565b3480156105e257600080fd5b5061024a6105f1366004611c42565b61119b565b34801561060257600080fd5b5061024a611270565b34801561061757600080fd5b5061029c600f5481565b34801561062d57600080fd5b5061024a61063c366004611bb6565b61131a565b34801561064d57600080fd5b5061029c61065c366004611bb6565b6113b5565b60006006546007546106739190611dd4565b905090565b6001546001600160a01b031633146106a25760405162461bcd60e51b815260040161024190611d11565b6002546001600160a01b03828116911614156107005760405162461bcd60e51b815260206004820152601960248201527f63616e206e6f74207377656570207374616b6520746f6b656e000000000000006044820152606401610241565b6003546001600160a01b038281169116141561075e5760405162461bcd60e51b815260206004820152601a60248201527f63616e206e6f742073776565702072657761726420746f6b656e0000000000006044820152606401610241565b6040516370a0823160e01b81523060048201526000906001600160a01b038316906370a082319060240160206040518083038186803b1580156107a057600080fd5b505afa1580156107b4573d6000803e3d6000fd5b505050506040513d601f19601f820116820180604052508101906107d89190611c5a565b90506107ee6001600160a01b0383163383611496565b6040518181526001600160a01b0383169033907f9186304ffe50c568e430e57234122976c83522da68345954bb5485cbab3957139060200160405180910390a35050565b600260005414156108555760405162461bcd60e51b815260040161024190611d46565b60026000908155338152600c6020526040902080548211156108ae5760405162461bcd60e51b81526020600482015260126024820152711dda5d1a191c985dce881b9bdd0819dbdbd960721b6044820152606401610241565b6108b6611270565b6001810154600b5482546000929168327cb2734119d3b7a9601e1b916108dc9190611db5565b6108e69190611d95565b6108f09190611dd4565b9050801561095b5780610901610de2565b101561094f5760405162461bcd60e51b815260206004820152601b60248201527f696e73756666696369656e74207265776172642062616c616e636500000000006044820152606401610241565b61095b338260016114fe565b821561099957815461096e908490611dd4565b8255600854610987906001600160a01b03163385611496565b826005546109959190611dd4565b6005555b600b54825468327cb2734119d3b7a9601e1b916109b591611db5565b6109bf9190611d95565b600183015560405183815233907f884edad9ce6fa2440d8a54cc123490eb96d2768479d49ff9c7366125a94243649060200160405180910390a25050600160005550565b6001546001600160a01b03163314610a2d5760405162461bcd60e51b815260040161024190611d11565b610a35610de2565b811115610a795760405162461bcd60e51b81526020600482015260126024820152716e6f7420656e6f756768207265776172647360701b6044820152606401610241565b610a85338260006114fe565b60405181815233907f2d4434bb59801e733e9ce3df40b0c5518861a5fcdeec1906e83e03c755872b429060200160405180910390a250565b6001546001600160a01b03163314610ae75760405162461bcd60e51b815260040161024190611d11565b6004819055600f5460408051918252602082018390527f055418cabed8a0ec732dd9b1f84e69d3f33a8f9a70d721b7a6962a00c26a457291015b60405180910390a150565b60026000541415610b4f5760405162461bcd60e51b815260040161024190611d46565b60026000556001600160a01b038116610baa5760405162461bcd60e51b815260206004820152601e60248201527f43616e2774206465706f73697420666f72206e756c6c206164647265737300006044820152606401610241565b610bb48282611658565b50506001600055565b6001546001600160a01b03163314610be75760405162461bcd60e51b815260040161024190611d11565b610bf160006118e0565b565b6000600554610c00610d44565b6106739190611dd4565b600354600160a01b900460ff1615610c5d5760405162461bcd60e51b81526020600482015260166024820152752932bbb0b9321034b9903730ba34bb32903a37b5b2b760511b6044820152606401610241565b60008111610cbb5760405162461bcd60e51b815260206004820152602560248201527f4465706f7369742076616c7565206d757374206265206772656174657220746860448201526430b710181760d91b6064820152608401610241565b600354610cd3906001600160a01b0316333084611932565b6040518181527f754fe3a3c69256b66ca56365fda4bbf3299d7c94038c105ffd43fb4b37f56db690602001610b21565b6000600f548211610d1f57610d188383611dd4565b9050610d3e565b600f548310610d3057506000610d3e565b82600f54610d189190611dd4565b92915050565b6003546002546000916001600160a01b0391821691161415610d67575060055490565b6002546040516370a0823160e01b81523060048201526001600160a01b03909116906370a082319060240160206040518083038186803b158015610daa57600080fd5b505afa158015610dbe573d6000803e3d6000fd5b505050506040513d601f19601f820116820180604052508101906106739190611c5a565b600354600090600160a01b900460ff1615610dfc57504790565b6003546040516370a0823160e01b81523060048201526000916001600160a01b0316906370a082319060240160206040518083038186803b158015610e4057600080fd5b505afa158015610e54573d6000803e3d6000fd5b505050506040513d601f19601f82011682018060405250810190610e789190611c5a565b6003546002549192506001600160a01b0391821691161415610ea757600554610ea19082611dd4565b91505090565b919050565b60026000541415610ecf5760405162461bcd60e51b815260040161024190611d46565b6002600055610ede8133611658565b506001600055565b6001546001600160a01b03163314610f105760405162461bcd60e51b815260040161024190611d11565b6000610f1a610bf3565b600254909150610f34906001600160a01b03168383611496565b816001600160a01b03167feb4e6a6a8d3c8edbd6ef48316a3670cfa0e6374eebe3f555e620399f866d2f3282604051610f6f91815260200190565b60405180910390a25050565b600154600160a81b900460ff1680610f9d5750600154600160a01b900460ff16155b6110005760405162461bcd60e51b815260206004820152602e60248201527f496e697469616c697a61626c653a20636f6e747261637420697320616c72656160448201526d191e481a5b9a5d1a585b1a5e995960921b6064820152608401610241565b600154600160a81b900460ff1615801561102a576001805461ffff60a01b191661010160a01b1790555b6001600160a01b03851661104c576003805460ff60a01b1916600160a01b1790555b600280546001600160a01b038089166001600160a01b03199283168117909355600380549189169183169190911790556004869055600e859055600f849055604080516080810182528381526103e86020820181905291810187905260006060909101819052600880549093169093179091556009819055600a859055600b91909155600d5580156110e6576001805460ff60a81b191690555b505050505050565b600260005414156111115760405162461bcd60e51b815260040161024190611d46565b6002600090815533808252600c602052604090912080546008549192611140926001600160a01b031691611496565b805460055461114f9190611dd4565b60055560008082556001820181905560405190815233907f5fafa99d0643513820be26656b45130b01e1c03062e1266bf36f88cbd3bd96959060200160405180910390a2506001600055565b6001546001600160a01b031633146111c55760405162461bcd60e51b815260040161024190611d11565b4281116112315760405162461bcd60e51b815260206004820152603460248201527f6e657720626f6e757320656e642074696d657374616d70206d7573742062652060448201527319dc99585d195c881d1a185b8818dd5c9c995b9d60621b6064820152608401610241565b600f8190556004546040805183815260208101929092527f055418cabed8a0ec732dd9b1f84e69d3f33a8f9a70d721b7a6962a00c26a45729101610b21565b600a54421161127b57565b6005546112885742600a55565b600061129960086002015442610d03565b600d546009546004549293506000926112b29085611db5565b6112bc9190611db5565b6112c69190611d95565b905080600760008282546112da9190611d7d565b90915550506005546112f88268327cb2734119d3b7a9601e1b611db5565b6113029190611d95565b600b5461130f9190611d7d565b600b55505042600a55565b6001546001600160a01b031633146113445760405162461bcd60e51b815260040161024190611d11565b6001600160a01b0381166113a95760405162461bcd60e51b815260206004820152602660248201527f4f776e61626c653a206e6577206f776e657220697320746865207a65726f206160448201526564647265737360d01b6064820152608401610241565b6113b2816118e0565b50565b6001600160a01b0381166000908152600c60205260408120600b54600a54421180156113e2575060055415155b1561145a5760006113f860086002015442610d03565b600d546009546004549293506000926114119085611db5565b61141b9190611db5565b6114259190611d95565b6005549091506114418268327cb2734119d3b7a9601e1b611db5565b61144b9190611d95565b6114559084611d7d565b925050505b6001820154825468327cb2734119d3b7a9601e1b9061147a908490611db5565b6114849190611d95565b61148e9190611dd4565b949350505050565b6040516001600160a01b0383166024820152604481018290526114f990849063a9059cbb60e01b906064015b60408051601f198184030181529190526020810180516001600160e01b03166001600160e01b03199093169290921790915261196a565b505050565b611506610de2565b8211156115555760405162461bcd60e51b815260206004820152601760248201527f6e6f7420656e6f7567682072657761726420746f6b656e0000000000000000006044820152606401610241565b801561157357816006600082825461156d9190611d7d565b90915550505b600354600160a01b900460ff1615611641576000836001600160a01b03166159d884604051600060405180830381858888f193505050503d80600081146115d6576040519150601f19603f3d011682016040523d82523d6000602084013e6115db565b606091505b505090508061163b5760405162461bcd60e51b815260206004820152602660248201527f5472616e7366657248656c7065723a204e41544956455f5452414e534645525f60448201526511905253115160d21b6064820152608401610241565b50505050565b6003546114f9906001600160a01b03168484611496565b6001600160a01b0381166000908152600c60205260409020611678611270565b805415611726576001810154600b5482546000929168327cb2734119d3b7a9601e1b916116a59190611db5565b6116af9190611d95565b6116b99190611dd4565b9050801561172457806116ca610de2565b10156117185760405162461bcd60e51b815260206004820152601b60248201527f696e73756666696369656e74207265776172642062616c616e636500000000006044820152606401610241565b611724838260016114fe565b505b6000831561186f576002546040516370a0823160e01b81523060048201526000916001600160a01b0316906370a082319060240160206040518083038186803b15801561177257600080fd5b505afa158015611786573d6000803e3d6000fd5b505050506040513d601f19601f820116820180604052508101906117aa9190611c5a565b6008549091506117c5906001600160a01b0316333088611932565b6002546040516370a0823160e01b815230600482015282916001600160a01b0316906370a082319060240160206040518083038186803b15801561180857600080fd5b505afa15801561181c573d6000803e3d6000fd5b505050506040513d601f19601f820116820180604052508101906118409190611c5a565b61184a9190611dd4565b835490925061185a908390611d7d565b835560055461186a908390611d7d565b600555505b600b54825468327cb2734119d3b7a9601e1b9161188b91611db5565b6118959190611d95565b60018301556040518181526001600160a01b0384169033907f5548c837ab068cf56a2c2479df0882a4922fd203edb7517321831d95078c5f629060200160405180910390a350505050565b600180546001600160a01b038381166001600160a01b0319831681179093556040519116919082907f8be0079c531659141344cd1fd0a4f28419497f9722a3daafe3b4186f6b6457e090600090a35050565b6040516001600160a01b038085166024830152831660448201526064810182905261163b9085906323b872dd60e01b906084016114c2565b60006119bf826040518060400160405280602081526020017f5361666545524332303a206c6f772d6c6576656c2063616c6c206661696c6564815250856001600160a01b0316611a3c9092919063ffffffff16565b8051909150156114f957808060200190518101906119dd9190611bd2565b6114f95760405162461bcd60e51b815260206004820152602a60248201527f5361666545524332303a204552433230206f7065726174696f6e20646964206e6044820152691bdd081cdd58d8d9595960b21b6064820152608401610241565b6060611a4b8484600085611a55565b90505b9392505050565b606082471015611ab65760405162461bcd60e51b815260206004820152602660248201527f416464726573733a20696e73756666696369656e742062616c616e636520666f6044820152651c8818d85b1b60d21b6064820152608401610241565b843b611b045760405162461bcd60e51b815260206004820152601d60248201527f416464726573733a2063616c6c20746f206e6f6e2d636f6e74726163740000006044820152606401610241565b600080866001600160a01b03168587604051611b209190611cc2565b60006040518083038185875af1925050503d8060008114611b5d576040519150601f19603f3d011682016040523d82523d6000602084013e611b62565b606091505b5091509150611b72828286611b7d565b979650505050505050565b60608315611b8c575081611a4e565b825115611b9c5782518084602001fd5b8160405162461bcd60e51b81526004016102419190611cde565b600060208284031215611bc7578081fd5b8135611a4e81611e2d565b600060208284031215611be3578081fd5b81518015158114611a4e578182fd5b600080600080600060a08688031215611c09578081fd5b8535611c1481611e2d565b94506020860135611c2481611e2d565b94979496505050506040830135926060810135926080909101359150565b600060208284031215611c53578081fd5b5035919050565b600060208284031215611c6b578081fd5b5051919050565b60008060408385031215611c84578182fd5b823591506020830135611c9681611e2d565b809150509250929050565b60008060408385031215611cb3578182fd5b50508035926020909101359150565b60008251611cd4818460208701611deb565b9190910192915050565b6020815260008251806020840152611cfd816040850160208701611deb565b601f01601f19169190910160400192915050565b6020808252818101527f4f776e61626c653a2063616c6c6572206973206e6f7420746865206f776e6572604082015260600190565b6020808252601f908201527f5265656e7472616e637947756172643a207265656e7472616e742063616c6c00604082015260600190565b60008219821115611d9057611d90611e17565b500190565b600082611db057634e487b7160e01b81526012600452602481fd5b500490565b6000816000190483118215151615611dcf57611dcf611e17565b500290565b600082821015611de657611de6611e17565b500390565b60005b83811015611e06578181015183820152602001611dee565b8381111561163b5750506000910152565b634e487b7160e01b600052601160045260246000fd5b6001600160a01b03811681146113b257600080fdfea26469706673582212204c5ec411431182a651685c454553b2506e53313e5f4549254731ad1cdc576e3a64736f6c63430008040033",
  "immutableReferences": {},
  "source": "// SPDX-License-Identifier: MIT\npragma solidity ^0.8.4;\n\n/* \n  ______                     ______                                 \n /      \\                   /      \\                                \n|  \\ ______   ______ |  \\__   __   __  ______   ______  \n| __| /      \\ /      \\| ___\\  \\ |  \\ |  \\|      \\ /      \\ \n|       \\  \\\\    \\|  |  |  \\\\  \\\n|    |      _\\\\  |  | /         | \n|   |  __/    \\__|  _/ _/    __/ \n|   |      \\     \\\\    \\      \\         \n \\   \\   \\ \\  \\\\  \\  \n         |                                              |       \n         |                                              |       \n          \\                                              \\         \n * App:             https://ApeSwap.finance\n * Medium:          https://ape-swap.medium.com\n * Twitter:         https://twitter.com/ape_swap\n * Telegram:        https://t.me/ape_swap\n * Announcements:   https://t.me/ape_swap_news\n * Discord:         https://discord.com/ApeSwap\n * Reddit:          https://reddit.com/r/ApeSwap\n * Instagram:       https://instagram.com/ApeSwap.finance\n * GitHub:          https://github.com/ApeSwapFinance\n */\n\nimport \"@openzeppelin/contracts/token/ERC20/IERC20.sol\";\nimport \"@openzeppelin/contracts/token/ERC20/utils/SafeERC20.sol\";\nimport \"@openzeppelin/contracts/access/Ownable.sol\";\nimport \"@openzeppelin/contracts/proxy/utils/Initializable.sol\";\nimport \"@openzeppelin/contracts/security/ReentrancyGuard.sol\";\n\ncontract ERC20RewardApeV1 is ReentrancyGuard, Ownable, Initializable {\n    using SafeERC20 for IERC20;\n\n    // Info of each user.\n    struct UserInfo {\n        uint256 amount; // How many LP tokens the user has provided.\n        uint256 rewardDebt; // Reward debt. See explanation below.\n    }\n\n    // Info of each pool.\n    struct PoolInfo {\n        IERC20 lpToken; // Address of LP token contract.\n        uint256 allocPoint; // How many allocation points assigned to this pool. Rewards to distribute per second.\n        uint256 lastRewardTime; // Last timestamp that Rewards distribution occurs.\n        uint256 accRewardTokenPerShare; // Accumulated Rewards per share, times 1e30. See below.\n    }\n\n    // The stake token\n    IERC20 public STAKE_TOKEN;\n    // The reward token\n    IERC20 public REWARD_TOKEN;\n\n    // Is native token reward\n    bool public isNativeTokenReward;\n\n    // Reward tokens created per second.\n    uint256 public rewardPerSecond;\n\n    // Keep track of number of tokens staked in case the contract earns reflect fees\n    uint256 public totalStaked = 0;\n    // Keep track of number of reward tokens paid to find remaining reward balance\n    uint256 public totalRewardsPaid = 0;\n    // Keep track of number of reward tokens paid to find remaining reward balance\n    uint256 public totalRewardsAllocated = 0;\n\n    // Info of each pool.\n    PoolInfo public poolInfo;\n    // Info of each user that stakes LP tokens.\n    mapping(address => UserInfo) public userInfo;\n    // Total allocation points. Must be the sum of all allocation points in all pools.\n    uint256 private totalAllocPoint = 0;\n    // The timestamp number when Reward mining starts.\n    uint256 public startTime;\n    // The timestamp number when mining ends.\n    uint256 public bonusEndTime;\n\n    event Deposit(address indexed sender, address indexed user, uint256 amount);\n    event DepositRewards(uint256 amount);\n    event Withdraw(address indexed user, uint256 amount);\n    event EmergencyWithdraw(address indexed user, uint256 amount);\n    event SkimStakeTokenFees(address indexed user, uint256 amount);\n    event LogUpdatePool(uint256 bonusEndTime, uint256 rewardPerSecond);\n    event EmergencyRewardWithdraw(address indexed user, uint256 amount);\n    event EmergencySweepWithdraw(\n        address indexed user,\n        IERC20 indexed token,\n        uint256 amount\n    );\n\n    function initialize(\n        IERC20 _stakeToken,\n        IERC20 _rewardToken,\n        uint256 _rewardPerSecond,\n        uint256 _startTime,\n        uint256 _bonusEndTime\n    ) external initializer {\n        if (address(_rewardToken) == address(0)) {\n            isNativeTokenReward = true;\n        }\n        STAKE_TOKEN = _stakeToken;\n        REWARD_TOKEN = _rewardToken;\n        rewardPerSecond = _rewardPerSecond;\n        startTime = _startTime;\n        bonusEndTime = _bonusEndTime;\n\n        // staking pool\n        poolInfo = PoolInfo({\n            lpToken: _stakeToken,\n            allocPoint: 1000,\n            lastRewardTime: startTime,\n            accRewardTokenPerShare: 0\n        });\n\n        totalAllocPoint = 1000;\n    }\n\n    // Return reward multiplier over the given _from to _to timestamp.\n    function getMultiplier(uint256 _from, uint256 _to)\n        public\n        view\n        returns (uint256)\n    {\n        if (_to <= bonusEndTime) {\n            return _to - _from;\n        } else if (_from >= bonusEndTime) {\n            return 0;\n        } else {\n            return bonusEndTime - _from;\n        }\n    }\n\n    /// @param  _bonusEndTime The timestamp when rewards will end\n    function setBonusEndTime(uint256 _bonusEndTime) external onlyOwner {\n        require(\n            _bonusEndTime > block.timestamp,\n            \"new bonus end timestamp must be greater than current\"\n        );\n        bonusEndTime = _bonusEndTime;\n        emit LogUpdatePool(bonusEndTime, rewardPerSecond);\n    }\n\n    // View function to see pending Reward on frontend.\n    function pendingReward(address _user)\n        external\n        view\n        returns (uint256 pending)\n    {\n        UserInfo storage user = userInfo[_user];\n        uint256 accRewardTokenPerShare = poolInfo.accRewardTokenPerShare;\n        if (block.timestamp > poolInfo.lastRewardTime && totalStaked != 0) {\n            uint256 multiplier = getMultiplier(\n                poolInfo.lastRewardTime,\n                block.timestamp\n            );\n            uint256 tokenReward = (multiplier *\n                rewardPerSecond *\n                poolInfo.allocPoint) / totalAllocPoint;\n            accRewardTokenPerShare =\n                accRewardTokenPerShare +\n                ((tokenReward * 1e30) / totalStaked);\n        }\n        pending =\n            (user.amount * accRewardTokenPerShare) /\n            1e30 -\n            user.rewardDebt;\n    }\n\n    // Update reward variables of the given pool to be up-to-date.\n    function updatePool() public {\n        if (block.timestamp <= poolInfo.lastRewardTime) {\n            return;\n        }\n        if (totalStaked == 0) {\n            poolInfo.lastRewardTime = block.timestamp;\n            return;\n        }\n        uint256 multiplier = getMultiplier(\n            poolInfo.lastRewardTime,\n            block.timestamp\n        );\n        uint256 tokenReward = (multiplier *\n            rewardPerSecond *\n            poolInfo.allocPoint) / totalAllocPoint;\n        totalRewardsAllocated += tokenReward;\n        poolInfo.accRewardTokenPerShare =\n            poolInfo.accRewardTokenPerShare +\n            ((tokenReward * 1e30) / totalStaked);\n        poolInfo.lastRewardTime = block.timestamp;\n    }\n\n    /// Deposit staking token into the contract to earn rewards.\n    /// @dev Since this contract needs to be supplied with rewards we are\n    ///  sending the balance of the contract if the pending rewards are higher\n    /// @param _amount The amount of staking tokens to deposit\n    function deposit(uint256 _amount) external nonReentrant {\n        _depositTo(_amount, msg.sender);\n    }\n\n    function depositTo(uint256 _amount, address _user) external nonReentrant {\n        require(_user != address(0), \"Can't deposit for null address\");\n        _depositTo(_amount, _user);\n    }\n\n    function _depositTo(uint256 _amount, address _user) internal {\n        UserInfo storage user = userInfo[_user];\n        updatePool();\n        if (user.amount > 0) {\n            uint256 pending = (user.amount * poolInfo.accRewardTokenPerShare) /\n                1e30 -\n                user.rewardDebt;\n            if (pending > 0) {\n                // If rewardBalance is low then revert to avoid losing the user's rewards\n                require(\n                    rewardBalance() >= pending,\n                    \"insufficient reward balance\"\n                );\n                safeTransferRewardInternal(_user, pending, true);\n            }\n        }\n\n        uint256 finalDepositAmount = 0;\n        if (_amount > 0) {\n            uint256 preStakeBalance = STAKE_TOKEN.balanceOf(address(this));\n            poolInfo.lpToken.safeTransferFrom(\n                address(msg.sender),\n                address(this),\n                _amount\n            );\n            finalDepositAmount =\n                STAKE_TOKEN.balanceOf(address(this)) -\n                preStakeBalance;\n            user.amount = user.amount + finalDepositAmount;\n            totalStaked = totalStaked + finalDepositAmount;\n        }\n        user.rewardDebt =\n            (user.amount * poolInfo.accRewardTokenPerShare) /\n            1e30;\n\n        emit Deposit(msg.sender, _user, finalDepositAmount);\n    }\n\n    /// Withdraw rewards and/or staked tokens. Pass a 0 amount to withdraw only rewards\n    /// @param _amount The amount of staking tokens to withdraw\n    function withdraw(uint256 _amount) external nonReentrant {\n        UserInfo storage user = userInfo[msg.sender];\n        require(user.amount >= _amount, \"withdraw: not good\");\n        updatePool();\n        uint256 pending = (user.amount * poolInfo.accRewardTokenPerShare) /\n            1e30 -\n            user.rewardDebt;\n        if (pending > 0) {\n            // If rewardBalance is low then revert to avoid losing the user's rewards\n            require(rewardBalance() >= pending, \"insufficient reward balance\");\n            safeTransferRewardInternal(address(msg.sender), pending, true);\n        }\n\n        if (_amount > 0) {\n            user.amount = user.amount - _amount;\n            poolInfo.lpToken.safeTransfer(address(msg.sender), _amount);\n            totalStaked = totalStaked - _amount;\n        }\n\n        user.rewardDebt =\n            (user.amount * poolInfo.accRewardTokenPerShare) /\n            1e30;\n\n        emit Withdraw(msg.sender, _amount);\n    }\n\n    /// Obtain the reward balance of this contract\n    /// @return wei balance of contract\n    function rewardBalance() public view returns (uint256) {\n        if (isNativeTokenReward) {\n            return address(this).balance;\n        } else {\n            // Return ERC20 balance\n            uint256 balance = REWARD_TOKEN.balanceOf(address(this));\n            if (STAKE_TOKEN == REWARD_TOKEN) {\n                return balance - totalStaked;\n            }\n            return balance;\n        }\n    }\n\n    /// Get the balance of rewards that have not been harvested\n    /// @return wei balance of rewards left to be paid\n    function getUnharvestedRewards() public view returns (uint256) {\n        return totalRewardsAllocated - totalRewardsPaid;\n    }\n\n    // Deposit Rewards into contract\n    function depositRewards(uint256 _amount) external {\n        require(!isNativeTokenReward, \"Reward is native token\");\n        require(_amount > 0, \"Deposit value must be greater than 0.\");\n        REWARD_TOKEN.safeTransferFrom(\n            address(msg.sender),\n            address(this),\n            _amount\n        );\n        emit DepositRewards(_amount);\n    }\n\n    /// @param _to address to send reward token to\n    /// @param _amount value of reward token to transfer\n    function safeTransferRewardInternal(\n        address _to,\n        uint256 _amount,\n        bool _sumRewards\n    ) internal {\n        require(_amount <= rewardBalance(), \"not enough reward token\");\n        if (_sumRewards) {\n            totalRewardsPaid += _amount;\n        }\n\n        if (isNativeTokenReward) {\n            // Transfer native token to address\n            (bool success, ) = _to.call{gas: 23000, value: _amount}(\"\");\n            require(success, \"TransferHelper: NATIVE_TRANSFER_FAILED\");\n        } else {\n            // Transfer ERC20 to address\n            REWARD_TOKEN.safeTransfer(_to, _amount);\n        }\n    }\n\n    /// @dev Obtain the stake balance of this contract\n    function totalStakeTokenBalance() public view returns (uint256) {\n        if (STAKE_TOKEN == REWARD_TOKEN) return totalStaked;\n        return STAKE_TOKEN.balanceOf(address(this));\n    }\n\n    /// @dev Obtain the stake token fees (if any) earned by reflect token\n    /// @notice If STAKE_TOKEN == REWARD_TOKEN there are no fees to skim\n    function getStakeTokenFeeBalance() public view returns (uint256) {\n        return totalStakeTokenBalance() - totalStaked;\n    }\n\n    /* Admin Functions */\n\n    /// @param _rewardPerSecond The amount of reward tokens to be given per second\n    function setRewardPerSecond(uint256 _rewardPerSecond) external onlyOwner {\n        rewardPerSecond = _rewardPerSecond;\n        emit LogUpdatePool(bonusEndTime, rewardPerSecond);\n    }\n\n    /// @dev Remove excess stake tokens earned by reflect fees\n    function skimStakeTokenFees(address _to) external onlyOwner {\n        uint256 stakeTokenFeeBalance = getStakeTokenFeeBalance();\n        STAKE_TOKEN.safeTransfer(_to, stakeTokenFeeBalance);\n        emit SkimStakeTokenFees(_to, stakeTokenFeeBalance);\n    }\n\n    /* Emergency Functions */\n\n    // Withdraw without caring about rewards. EMERGENCY ONLY.\n    function emergencyWithdraw() external nonReentrant {\n        UserInfo storage user = userInfo[msg.sender];\n        poolInfo.lpToken.safeTransfer(address(msg.sender), user.amount);\n        totalStaked = totalStaked - user.amount;\n        user.amount = 0;\n        user.rewardDebt = 0;\n        emit EmergencyWithdraw(msg.sender, user.amount);\n    }\n\n    // Withdraw reward. EMERGENCY ONLY.\n    function emergencyRewardWithdraw(uint256 _amount) external onlyOwner {\n        require(_amount <= rewardBalance(), \"not enough rewards\");\n        // Withdraw rewards\n        safeTransferRewardInternal(msg.sender, _amount, false);\n        emit EmergencyRewardWithdraw(msg.sender, _amount);\n    }\n\n    /// @notice A public function to sweep accidental BEP20 transfers to this contract.\n    ///   Tokens are sent to owner\n    /// @param token The address of the BEP20 token to sweep\n    function sweepToken(IERC20 token) external onlyOwner {\n        require(\n            address(token) != address(STAKE_TOKEN),\n            \"can not sweep stake token\"\n        );\n        require(\n            address(token) != address(REWARD_TOKEN),\n            \"can not sweep reward token\"\n        );\n        uint256 balance = token.balanceOf(address(this));\n        token.safeTransfer(msg.sender, balance);\n        emit EmergencySweepWithdraw(msg.sender, token, balance);\n    }\n\n    receive() external payable {\n        if (!isNativeTokenReward) {\n            revert(\"Reward token is not native\");\n        }\n    }\n}\n",
  "sourcePath": "/Users/defifofum/Code/ApeSwap/apeswap-pool-factory/contracts/ERC20RewardApeV1.sol",
  "compiler": {
    "name": "solc",
    "version": "0.8.4+commit.c7e474f2.Emscripten.clang"
  },
  "schemaVersion": "3.4.3",
  "updatedAt": "2022-10-19T23:28:58.054Z",
  "devdoc": {
    "kind": "dev",
    "methods": {
      "deposit(uint256)": {
        "details": "Since this contract needs to be supplied with rewards we are  sending the balance of the contract if the pending rewards are higher",
        "params": {
          "_amount": "The amount of staking tokens to deposit"
        }
      },
      "getStakeTokenFeeBalance()": {
        "details": "Obtain the stake token fees (if any) earned by reflect token"
      },
      "getUnharvestedRewards()": {
        "returns": {
          "_0": "wei balance of rewards left to be paid"
        }
      },
      "owner()": {
        "details": "Returns the address of the current owner."
      },
      "renounceOwnership()": {
        "details": "Leaves the contract without owner. It will not be possible to call `onlyOwner` functions anymore. Can only be called by the current owner. NOTE: Renouncing ownership will leave the contract without an owner, thereby removing any functionality that is only available to the owner."
      },
      "rewardBalance()": {
        "returns": {
          "_0": "wei balance of contract"
        }
      },
      "setBonusEndTime(uint256)": {
        "params": {
          "_bonusEndTime": "The timestamp when rewards will end"
        }
      },
      "setRewardPerSecond(uint256)": {
        "params": {
          "_rewardPerSecond": "The amount of reward tokens to be given per second"
        }
      },
      "skimStakeTokenFees(address)": {
        "details": "Remove excess stake tokens earned by reflect fees"
      },
      "sweepToken(address)": {
        "params": {
          "token": "The address of the BEP20 token to sweep"
        }
      },
      "totalStakeTokenBalance()": {
        "details": "Obtain the stake balance of this contract"
      },
      "transferOwnership(address)": {
        "details": "Transfers ownership of the contract to a new account (`newOwner`). Can only be called by the current owner."
      },
      "withdraw(uint256)": {
        "params": {
          "_amount": "The amount of staking tokens to withdraw"
        }
      }
    },
    "version": 1
  },
  "userdoc": {
    "kind": "user",
    "methods": {
      "deposit(uint256)": {
        "notice": "Deposit staking token into the contract to earn rewards."
      },
      "getStakeTokenFeeBalance()": {
        "notice": "If STAKE_TOKEN == REWARD_TOKEN there are no fees to skim"
      },
      "getUnharvestedRewards()": {
        "notice": "Get the balance of rewards that have not been harvested"
      },
      "rewardBalance()": {
        "notice": "Obtain the reward balance of this contract"
      },
      "sweepToken(address)": {
        "notice": "A public function to sweep accidental BEP20 transfers to this contract.   Tokens are sent to owner"
      },
      "withdraw(uint256)": {
        "notice": "Withdraw rewards and/or staked tokens. Pass a 0 amount to withdraw only rewards"
      }
    },
    "version": 1
  }
}